:020000040800F2
:100000000050002055060008A5060008A5060008B7
:10001000A5060008A5060008A506000800000000C7
:10002000000000000000000000000000A50600081D
:10003000A506000800000000A506000899050008B4
:10004000A5060008A5060008A5060008A5060008E4
:10005000A5060008A50600081104000825040008EC
:10006000A5060008A5060008A5060008A5060008C4
:10007000A5060008A5060008A5060008A5060008B4
:10008000A5060008A5060008A5060008A5060008A4
:10009000A5060008A5060008A5060008A506000894
:1000A000A5060008A5060008A5060008A506000884
:1000B000A5060008A5060008A5060008A506000874
:1000C000A5060008A5060008A5060008A506000864
:1000D000A5060008A5060008A5060008A506000854
:1000E000A5060008A506000800000000A5060008F7
:1000F000A5060008A5060008A5060008A506000834
:10010000A5060008A5060008A5060008A506000823
:10011000A5060008A5060008A5060008A506000813
:10012000A5060008A5060008A5060008A506000803
:1001300010B5054C237833B9044B13B10448AFF321
:1001400000800123237010BD00000020000000008B
:10015000F006000808B5034B1BB103490348AFF391
:10016000008008BD0000000004000020F006000828
:1001700080B483B000AF0346FB710B46BB711346DE
:100180007B71FB79022B00F2B680BB790F2B00F25A
:10019000B2807B790F2B00F2AE80BB79072B52D84F
:1001A000FB79022B37D0022B00F3A680002B02D064
:1001B000012B18D0A0E0534B1B68BA7992000F2195
:1001C00001FA02F2D24311464E4A0B4013604D4BE6
:1001D0001B687979BA79920001FA02F21146494A0C
:1001E0000B43136088E0484B1B68BA7992000F21DB
:1001F00001FA02F2D2431146434A0B401360424BCC
:100200001B687979BA79920001FA02F211463E4AE6
:100210000B43136070E03D4B1B68BA7992000F21CD
:1002200001FA02F2D2431146384A0B401360374BB1
:100230001B687979BA79920001FA02F21146334AC1
:100240000B43136058E0BB790F2B54D8BB79083BA4
:10025000BB71FB79022B36D0022B4DDC002B02D078
:10026000012B18D048E02A4B1B68BA7992000F2165
:1002700001FA02F2D2431146254A0B401360244B87
:100280001B687979BA79920001FA02F21146204A84
:100290000B43136030E01F4B1B68BA7992000F21AB
:1002A00001FA02F2D24311461A4A0B401360194B6D
:1002B0001B687979BA79920001FA02F21146154A5F
:1002C0000B43136018E0144B1B68BA7992000F219E
:1002D00001FA02F2D24311460F4A0B4013600E4B53
:1002E0001B687979BA79920001FA02F211460A4A3A
:1002F0000B43136000E000BF00BF0C37BD4680BC5D
:10030000704700BF00080140000C01400010014090
:1003100004080140040C01400410014080B483B083
:1003200000AF0346FB710B46BB7113467B71FB7933
:10033000022B61D8BB790F2B5ED87B79002B2DD196
:10034000FB79022B1ED0022B57DC002B02D0012B95
:100350000CD052E02B4B1B68BA79012101FA02F252
:10036000D2431146274A0B40136046E0264B1B68D8
:10037000BA79012101FA02F2D2431146224A0B4016
:1003800013603AE0214B1B68BA79012101FA02F2AD
:10039000D24311461D4A0B4013602EE07B79012B9E
:1003A0002AD1FB79022B1CD0022B26DC002B02D099
:1003B000012B0BD021E0134B1B68BA79012101FA04
:1003C00002F211460F4A0B43136016E00E4B1B68F6
:1003D000BA79012101FA02F211460B4A0B4313606C
:1003E0000BE00A4B1B68BA79012101FA02F21146AF
:1003F000064A0B43136000E000BF00BF0C37BD4648
:1004000080BC70470C0801400C0C01400C100140EE
:1004100080B500AF024B1B68984700BF80BD00BF8E
:100420001C00002080B500AF024B1B68984700BF3E
:1004300080BD00BF2000002080B400AF0A4B1B68C5
:10044000094A43F001031360084B1B68074A23F075
:1004500001031360054B1B68044A23F00203136079
:1004600000BFBD4680BC704700100240041002402F
:1004700080B483B000AF03460A46FB711346BB71DC
:10048000BB791F2B2AD8FB79022B1CD0022B25DC31
:10049000002B02D0012B0BD020E0134B1B68BA7944
:1004A000012101FA02F211460F4A0B43136015E0D5
:1004B0000E4B1B68BA79012101FA02F211460B4A70
:1004C0000B4313600AE00A4B1B68BA79012101FA59
:1004D00002F21146064A0B43136000BF00BF0C37FF
:1004E000BD4680BC704700BF141002401C10024083
:1004F0001810024080B400AF034B40F247321A603C
:1005000000BFBD4680BC70470030014080B582B05E
:1005100000AF0346FB71002200210020FFF7FEFE22
:10052000074AFB79D36000BF054B9B68012200217D
:100530000020FFF7F3FE00BF0837BD4680BD00BFB7
:100540000030014080B483B000AF7860114A7B680E
:100550005360104B1B680F4A43F00103136000E027
:1005600000BF0C4B1B681B0C03F00103002BF7D0E2
:10057000084B1B68074A23F001031360054B002258
:100580005A60044B00229A6000BF0C37BD4680BC05
:10059000704700BF10E000E080B582B000AF124BA2
:1005A0001B78022B11D1114B1B68104A23F0020358
:1005B00013600E4B1B680D4A23F0010313600B4BB5
:1005C00000225A60094B00229A60094B1B68984729
:1005D000064B1B681B0CDBB203F00103FB7100BF71
:1005E0000837BD4680BD00BF2800002010E000E0B5
:1005F0002400002080B500AFFFF71EFF022102207B
:10060000FFF736FF0C210220FFF732FF0B220721F4
:100610000020FFF7ADFD042206210020FFF7A8FD12
:100620000B2205210020FFF7A3FD0322002100205B
:10063000FFF79EFDFFF75EFF012200210020FFF77C
:100640006DFE3820FFF762FF4FF47A70FFF77AFFF4
:10065000F7E700000D488546AFF300800C480D49D0
:100660000D4A002302E0D458C4500433C4188C420D
:10067000F9D30A4A0A4C002301E013600432A24273
:10068000FBD300F011F8FFF7B5FFFEE700500020A4
:1006900000000020000000201007000800000020DB
:1006A0002C000020FEE7000070B500260C4D0D4C1C
:1006B000641BA410A64209D100F01AF800260A4DC6
:1006C0000A4C641BA410A64205D170BD55F8043B2A
:1006D00098470136EEE755F8043B98470136F2E7B4
:1006E0000807000808070008080700080C070008AA
:1006F000F8B500BFF8BC08BC9E467047F8B500BF0F
:08070000F8BC08BC9E467047DE
:04070800550100088F
:04070C0031010008AF
:040000050800065594
:00000001FF
